S00E000066757A7A79422E737265638C
S11300000C9434000C9451000C9451000C94510045
S11300100C9451000C9451000C9451000C94510018
S11300200C9451000C9451000C9451000C94510008
S11300300C9451000C9451000C9451000C945100F8
S11300400C9451000C9451000C9451000C945100E8
S11300500C9451000C9451000C9451000C945100D8
S11300600C9451000C94510011241FBECFEFD8E022
S1130070DEBFCDBF11E0A0E0B1E0E4E6FBE102C0E9
S113008005900D92A03FB107D9F722E0A0EFB1E0AF
S113009001C01D92AE30B207E1F70E94DE060C9457
S11300A053000C940000FFCFCF92DF92EF92FF92A7
S11300B00F931F93CF93DF93C0910202D091030259
S11300C0209709F444C020E030E0CC24CA94D12C19
S11300D0EE24E394F12CE881F981309781F08C2DA2
S11300E09D2DA081B1814D915C91481759070CF465
S11300F0CA010280F381E02D309799F702C08C2D5C
S11301009D2DEA81FB813097D9F0082F192FA0810A
S1130110B1814D915C911197702F612F84179507D0
S113012014F4742F652F7C9311966C93181619068A
S113013014F42E2D3F2D0280F381E02D309739F7F2
S11301400C80DD81C02D209731F6232B21F486E02D
S113015091E00E94CD0ADF91CF911F910F91FF9002
S1130160EF90DF90CF9008958F929F92AF92BF92BD
S1130170CF92DF92EF92FF920F931F93CF93DF936F
S1130180FC01CB0124853585621B730B068517851D
S1130190081B190B161617061CF4101611061CF072
S11301A0138612863CC0EF01072E000C880B990BB6
S11301B00E940608288939894A895B890E94970820
S11301C06B017C01B801110F880B990B0E94060882
S11301D02C893D894E895F890E9497084B015C01F7
S11301E09B01AC01C701B6010E94920818163CF4A9
S11301F0C501B4010E94CE07362F272F06C0C701C0
S1130200B6010E94CE07362F272F832F922F8F3FC0
S1130210910519F014F08FEF90E09B878A87DF91A6
S1130220CF911F910F91FF90EF90DF90CF90BF90EF
S1130230AF909F908F9008950F931F93CF93DF9368
S11302400091FA011091FB0101151105B1F0F801BB
S1130250C485D585209759F0F80162857385CE0150
S11302600E94B400088CD98DC02D2097A9F7F801FD
S1130270068517850115110551F7DF91CF911F915F
S11302800F9108954F925F926F927F928F929F92F7
S1130290AF92BF92CF92DF92EF92FF92CF93DF9310
S11302A0EC016E857F858C859D85681B790B072EF7
S11302B0000C880B990B0E9406084B015C018A858F
S11302C09B85BC01990F880B990B0E9406086B0152
S11302D07C01288939894A895B890E945C079B01D2
S11302E0AC01C501B4010E94EF062B013C012C892D
S11302F03D894E895F89C701B6010E945C079B0155
S1130300AC01C301B2010E94EF069B01AC01C5011F
S1130310B4010E94F0069B01AC01C701B6010E9422
S1130320970820E030E040E05FE30E949708DF9107
S1130330CF91FF90EF90DF90CF90BF90AF909F90C0
S11303408F907F906F905F904F900895AF92BF927F
S1130350CF92DF92EF92FF920F931F93CF93DF938D
S1130360E090F001F090F101E114F10409F457C0B8
S1130370A12CB12CF701C485D585209771F1CA2C25
S1130380DB2C0A2D1B2DCE010E9442010E94CE07B8
S11303904C855D852E853F85F901E41BF50B9F0196
S11303A012F42F5F3F4F35952795240F351F269F55
S11303B0A001279F500D369F500D1124040F151FC7
S11303C0C60ED71E088CD98DC02D2097E1F6802F3C
S11303D0912FC114D104B9F402C000E010E08FE100
S11303E091E00E94CD0A1F930F9386E491E09F93BE
S11303F08F930E94B00AF701138612860F900F9014
S11304000F900F900CC0B6010E942809F701738762
S11304106287E684F784E114F10409F0ABCFDF913D
S1130420CF911F910F91FF90EF90DF90CF90BF90ED
S1130430AF9008958F929F92AF92BF92CF92DF9226
S1130440EF92FF920F931F93CF93DF93982E892EF1
S11304507B015A0169018091F2019091F301892B8A
S1130460A9F46AE170E081E090E00E945009909361
S1130470F3018093F2019093010280930002E091D2
S1130480F601F091F7019587848720C0E09100027E
S1130490F0910102F093F301E093F201C08DD18D4C
S11304A0209711F406C0EF01E88DF98D3097D9F744
S11304B001C0EF016AE170E081E090E00E94500920
S11304C0998F888F9093F3018093F201692D782D91
S11304D08091F2019091F3010E94A90AC091F20166
S11304E0D091F301FD86EC861F870E87B5016E1946
S11304F07F0916161706ACF48FEF90E00E942809C6
S1130500072E000C880B990B0E940608688B798BC8
S11305108A8B9B8BB8016C197D091616170674F02B
S11305201CC08F929F928BE591E09F938F930E94C2
S1130530B00A0F900F900F900F90FFCF8FEF90E0C5
S11305400E942809072E000C880B990B0E940608AC
S11305506C8B7D8B8E8B9F8B0DC08F929F928BE5C6
S113056091E09F938F930E94B00A0F900F900F9089
S11305700F90FFCFDF91CF911F910F91FF90EF90DC
S1130580DF90CF90BF90AF909F908F900895CF92BF
S1130590DF92EF92FF920F931F93CF93DF936C013F
S11305A07B018A01E091FA01F091FB01F093F701DC
S11305B0E093F601C485D585D093F301C093F2018D
S11305C02097D9F1B601CE010E94A00A892B61F5CA
S11305D064E070E081E090E00E9450099093FD0196
S11305E08093FC01E091FE01F091FF0191838083EF
S11305F0E091FC01F091FD018091F2019091F301F1
S11306000A9691838083C091FC01D091FD0164E03E
S113061070E081E090E00E9450099B838A8390936C
S1130620FD018093FC0109C0088CD98DC02DD093A5
S1130630F301C093F201209729F6E091F601F091BD
S1130640F7010684F785E02DF093F701E093F601B6
S1130650C485D585D093F301C093F2012097B9F0F6
S1130660B701CE010E94A00A892B41F4E091FC015C
S1130670F091FD012A96D183C08309C0088CD98DDD
S1130680C02DD093F301C093F201209749F78091D4
S1130690F8019091F901892B41F48091F001909136
S11306A0F1019093F9018093F801E091F801F09140
S11306B0F901C485D585D093F301C093F201209745
S11306C021F1B801CE010E94A00A892BA9F464E0AB
S11306D070E081E090E00E9450099093F5018093CE
S11306E0F401E091FE01F091FF01938382832A9645
S11306F0FC01D183C08309C0088CD98DC02DD0934F
S1130700F301C093F2012097E1F6C091FE01D0916C
S1130710FF0166E070E081E090E00E9450099D8353
S11307208C839093FF018093FE01DF91CF911F9101
S11307300F91FF90EF90DF90CF9008950F931F9348
S1130740CF93DF931092FF011092FE011092FD01EE
S11307501092FC011092F5011092F40160E170E036
S113076081E090E00E9450099093F7018093F60194
S11307709093FB018093FA0126E0E8E8F1E0DC01C4
S113078001900D922A95E1F71092F3011092F20173
S11307900FE310E02FE130E04FE150E060E070E063
S11307A08EE891E00E941A020FE510E02FE330E09A
S11307B04FE350E06FE170E081E991E00E941A029A
S11307C00FE710E02FE530E04FE550E06FE370E015
S11307D084E991E00E941A020FE910E02FE730E06B
S11307E04FE750E06FE570E087E991E00E941A025C
S11307F00FEB10E02FE930E04FE950E06FE770E0D5
S11308008AE991E00E941A020FED10E02FEB30E02C
S11308104FEB50E06FE970E08DE991E00E941A021D
S11308200FEF10E02FED30E04FED50E06FEB70E094
S113083080EA91E00E941A02C091F601D091F7017A
S113084060E170E081E090E00E9450099F878E870C
S11308509093F7018093F60129E0E3EAF1E0DC01EB
S113086001900D922A95E1F71092F3011092F20192
S11308700FE310E02FE130E04FE150E060E070E082
S11308808EE891E00E941A020FE510E02FE330E0B9
S11308904FE350E06FE170E081E991E00E941A02B9
S11308A00FE710E02FE530E04FE550E06FE370E034
S11308B084E991E00E941A020FE910E02FE730E08A
S11308C04FE750E06FE570E087E991E00E941A027B
S11308D00FEB10E02FE930E04FE950E06FE770E0F4
S11308E08AE991E00E941A020FED10E02FEB30E04C
S11308F04FEB50E06FE970E08DE991E00E941A023D
S11309000FEF10E02FED30E04FED50E06FEB70E0B3
S113091080EA91E00E941A0260E170E081E090E0D8
S11309200E9450099093F7018093F6019093F1018E
S11309308093F00126E0ECEAF1E0DC0101900D92F5
S11309402A95E1F71092F3011092F2010FE310E0FF
S11309502FE130E04FE150E060E070E08EE891E09C
S11309600E941A020FE510E02FE330E04FE350E05D
S11309706FE170E081E991E00E941A020FE710E054
S11309802FE530E04FE550E06FE370E084E991E05B
S11309900E941A020FE910E02FE730E04FE750E021
S11309A06FE570E087E991E00E941A020FEB10E016
S11309B02FE930E04FE950E06FE770E08AE991E019
S11309C00E941A020FED10E02FEB30E04FEB50E0E5
S11309D06FE970E08DE991E00E941A020FEF10E0D8
S11309E02FED30E04FED50E06FEB70E080EA91E0E6
S11309F00E941A021092F7011092F6011092F90166
S1130A001092F80166E070E081E090E00E945009E5
S1130A109093FF018093FE0190930302809302025E
S1130A2040EA51E067E971E08EE891E00E94C70274
S1130A304DE951E067E971E081E991E00E94C70264
S1130A404DE951E061E971E087E991E00E94C70254
S1130A504AE951E067E971E084E991E00E94C70244
S1130A604AE951E0BA0184E991E00E94C7024DE9E4
S1130A7051E067E971E0CB010E94C70244E951E00B
S1130A806AE971E087E991E00E94C70244E951E014
S1130A90BA018AE991E00E94C70241E951E06DE997
S1130AA071E087E991E00E94C70241E951E067E9FA
S1130AB071E0CA010E94C7024EE851E067E971E0A3
S1130AC080EA91E00E94C702DF91CF911F910F91BC
S1130AD00895CF92DF92EF92FF920F931F93CF93DB
S1130AE0DF93E091FA01F091FB01F093F701E093B9
S1130AF0F601309709F45AC002EB11E0C1ECD1E0E1
S1130B0083858F9382858F93FF93EF931F930F9326
S1130B100E94B00AE091F601F091F7010484F58592
S1130B20E02DF093F301E093F2010F900F900F90FA
S1130B300F900F900F90309739F187858F938685AA
S1130B408F9385858F9384858F9383858F938285F7
S1130B508F93FF93EF93DF93CF930E94B00AE091BA
S1130B60F201F091F301008CF18DE02DF093F3018B
S1130B70E093F2018DB79EB70A960FB6F8949EBF24
S1130B800FBE8DBF3097C9F68AE090E00E94C60A76
S1130B90E091F601F091F7010684F785E02DF093DA
S1130BA0F701E093F601309709F0AACFE091F00144
S1130BB0F091F101F093F701E093F601309709F415
S1130BC056C002EB11E0C1ECD1E083858F9382859E
S1130BD08F93FF93EF931F930F930E94B00AE091BA
S1130BE0F601F091F7010484F585E02DF093F3010B
S1130BF0E093F2010F900F900F900F900F900F90D1
S1130C00309739F187858F9386858F9385858F9368
S1130C1084858F9383858F9382858F93FF93EF933E
S1130C20DF93CF930E94B00AE091F201F091F301B7
S1130C30008CF18DE02DF093F301E093F2018DB778
S1130C409EB70A960FB6F8949EBF0FBE8DBF30971D
S1130C50C9F6E091F601F091F7010684F785E02DDD
S1130C60F093F701E093F601309709F0AECF8AE0F4
S1130C7090E00E94C60AE0910202F0910302F09310
S1130C80FF01E093FE0184819581892B09F47DC0E5
S1130C9081E090E00F2EF1EEEF2EF1E0FF2EF02D2B
S1130CA00BEE11E0CCEBD1E06C012FEFC21AD20AAB
S1130CB09F938F93FF92EF920E94B00AE091FE01FE
S1130CC0F091FF010190F081E02DF093FD01E0939C
S1130CD0FC010F900F900F900F903097E1F001906E
S1130CE0F081E02D81818F9380818F931F930F93E7
S1130CF00E94B00AE091FC01F091FD010280F381B1
S1130D00E02DF093FD01E093FC010F900F900F9004
S1130D100F90309721F7E091FE01F091FF010280DE
S1130D20F381E02DF093F501E093F4013097E1F0C5
S1130D300190F081E02D81818F9380818F93DF93E7
S1130D40CF930E94B00AE091F401F091F501028082
S1130D50F381E02DF093F501E093F4010F900F90EF
S1130D600F900F90309721F7E091FE01F091FF0171
S1130D700480F581E02DF093FF01E093FE01C601AC
S1130D8024813581232B09F08FCF8AE090E00E94E3
S1130D90C60ADF91CF911F910F91FF90EF90DF90E2
S1130DA0CF900895E091FA01F091FB019387828737
S1130DB00684F785E02D7387628708950E949E0359
S1130DC06DE770E08CE390E00E94D2060E941C0163
S1130DD00E9454000E94A6010E946905FFCF50584A
S1130DE0BB27AA270E9407070C9458080E944A08A8
S1130DF038F00E94510820F039F49F3F19F426F48A
S1130E000C9447080EF4E095E7FB0C944108E92F95
S1130E100E94690858F3BA17620773078407950795
S1130E2020F079F4A6F50C948B080EF4E0950B2EC3
S1130E30BA2FA02D0B01B90190010C01CA01A00128
S1130E401124FF27591B99F0593F50F4503E68F183
S1130E501A16F040A22F232F342F4427585FF3CFC4
S1130E60469537952795A795F0405395C9F77EF495
S1130E701F16BA0B620B730B840BBAF09150A1F0DE
S1130E80FF0FBB1F661F771F881FC2F70EC0BA0F64
S1130E90621F731F841F48F4879577956795B795EC
S1130EA0F7959E3F08F0B0CF9395880F08F09927E7
S1130EB0EE0F9795879508950E9470070C94580833
S1130EC00E94510858F00E944A0840F029F45F3FFC
S1130ED029F00C94410851110C948C080C94470887
S1130EE00E94690868F39923B1F3552391F3951B84
S1130EF0550BBB27AA2762177307840738F09F5F37
S1130F005F4F220F331F441FAA1FA9F335D00E2EA3
S1130F103AF0E0E832D091505040E695001CCAF710
S1130F202BD0FE2F29D0660F771F881FBB1F2617D3
S1130F3037074807AB07B0E809F0BB0B802DBF01AA
S1130F40FF2793585F4F3AF09E3F510578F00C9479
S1130F5041080C948C085F3FE4F3983ED4F38695E3
S1130F6077956795B795F7959F5FC9F7880F911D9A
S1130F709695879597F90895E1E0660F771F881F86
S1130F80BB1F621773078407BA0720F0621B730B39
S1130F90840BBA0BEE1F88F7E09508950E94D507DD
S1130FA06894B1110C948C0808950E94710888F01B
S1130FB09F5798F0B92F9927B751B0F0E1F0660F19
S1130FC0771F881F991F1AF0BA95C9F714C0B1305A
S1130FD091F00E948B08B1E008950C948B08672F60
S1130FE0782F8827B85F39F0B93FCCF38695779589
S1130FF06795B395D9F73EF4909580957095619572
S11310007F4F8F4F9F4F0895E89409C097FB3EF49C
S113101090958095709561957F4F8F4F9F4F992341
S1131020A9F0F92F96E9BB279395F69587957795BF
S11310306795B795F111F8CFFAF4BB0F11F460FF7F
S11310401BC06F5F7F4F8F4F9F4F16C0882311F0D7
S113105096E911C0772321F09EE8872F762F05C0EB
S1131060662371F096E8862F70E060E02AF09A9586
S1131070660F771F881FDAF7880F9695879597F97B
S1131080089597F99F6780E870E060E008959FEF06
S113109080EC089500240A9416161706180609060B
S11310A0089500240A9412161306140605060895DA
S11310B0092E0394000C11F4882352F0BB0F40F462
S11310C0BF2B11F460FF04C06F5F7F4F8F4F9F4FA2
S11310D0089557FD9058440F551F59F05F3F71F024
S11310E04795880F97FB991F61F09F3F79F087958B
S11310F00895121613061406551FF2CF4695F1DF14
S113110008C0161617061806991FF1CF86957105A3
S1131110610508940895E894BB2766277727CB01D7
S113112097F908950E94040908F48FEF08950E9426
S1131130AA080C9458080E944A0838F00E945108E2
S113114020F0952311F00C9441080C9447081124C5
S11311500C948C080E94690870F3959FC1F3950F55
S113116050E0551F629FF001729FBB27F00DB11D27
S1131170639FAA27F00DB11DAA1F649F6627B00DB7
S1131180A11D661F829F2227B00DA11D621F739FA0
S1131190B00DA11D621F839FA00D611D221F749FAE
S11311A03327A00D611D231F849F600D211D822FF5
S11311B0762F6A2F11249F5750409AF0F1F088231C
S11311C04AF0EE0FFF1FBB1F661F771F881F915049
S11311D05040A9F79E3F510580F00C9441080C94AF
S11311E08C085F3FE4F3983ED4F386957795679532
S11311F0B795F795E7959F5FC1F7FE2B880F911D73
S11312009695879597F90895990F0008550FAA0B9D
S1131210E0E8FEEF16161706E807F907C0F0121605
S11312201306E407F50798F0621B730B840B950B08
S113123039F40A2661F0232B242B252B21F408955D
S11312400A2609F4A140A6958FEF811D811D0895FA
S113125097FB072E16F4009407D077FD09D00E945F
S11312603C0907FC05D03EF4909581959F4F089565
S1131270709561957F4F0895AA1BBB1B51E107C070
S1131280AA1FBB1FA617B70710F0A61BB70B881F12
S1131290991F5A95A9F780959095BC01CD010895A1
S11312A00F931F93CF93DF93869F8001879F100D29
S11312B0969F100D1124C8010E946C09EC0100973F
S11312C029F0A80160E070E00E94990ACE01DF9144
S11312D0CF911F910F910895CF93DF9382309105A1
S11312E010F482E090E0E0910602F091070220E021
S11312F030E0C0E0D0E0309711F1408151814817CF
S11313005907C0F04817590761F4828193812097E7
S113131019F09B838A832BC0909307028093060263
S113132026C02115310519F04217530718F49A0104
S1131330BE01DF01EF010280F381E02DDCCF211536
S1131340310509F1281B390B2430310590F412962C
S11313508D919C9113976115710521F0FB01938385
S1131360828304C09093070280930602FD013296A3
S113137044C0FD01E20FF31F819391932250310980
S11313802D933C933AC02091040230910502232B03
S113139041F420910201309103013093050220931E
S11313A0040220910001309101012115310541F41D
S11313B02DB73EB74091040150910501241B350B14
S11313C0E0910402F0910502E217F307A0F42E1B4A
S11313D03F0B2817390778F0AC014E5F5F4F241795
S11313E0350748F04E0F5F1F5093050240930402E7
S11313F08193919302C0E0E0F0E0CF01DF91CF91BF
S113140008950F931F93CF93DF93009709F48CC033
S1131410FC01329713821282009106021091070296
S11314200115110581F420813181820F931F2091D0
S11314300402309105022817390779F5F093050263
S1131440E093040271C0D80140E050E0AE17BF073A
S113145050F412962D913C911397AD01211531054D
S113146009F1D901F3CF9D01DA013383228360812D
S11314707181860F971F8217930769F4EC01288105
S11314803981260F371F2E5F3F4F318320838A8196
S11314909B8193838283452B29F4F0930702E09385
S11314A0060242C01396FC93EE931297ED01499104
S11314B059919E01240F351FE217F30771F48081BF
S11314C09181840F951F029611969C938E9382812D
S11314D0938113969C938E931297E0E0F0E0D801E9
S11314E012968D919C911397009719F0F8018C0135
S11314F0F6CF8D919C9198012E5F3F4F820F931FE1
S113150020910402309105022817390769F43097B5
S113151029F4109207021092060202C0138212826A
S11315201093050200930402DF91CF911F910F9154
S11315300895DC0101C06D9341505040E0F70895D7
S1131540FB01DC018D91019080190110D9F3990BF5
S11315500895FB01DC0101900D920020E1F708954C
S1131560A0E0B0E0E6EBFAE00C948B0DAE014B5F2B
S11315705F4FFA0161917191AF0180910A029091DC
S11315800B020E94FD0AE2E00C94A70D60910A028E
S113159070910B020E94E50C08950F931F93CF9353
S11315A0DF93E0910A02F0910B02238121FF1BC01B
S11315B08C01D0E0C0E0F80181918F0160910A02B2
S11315C070910B02DB011896ED91FC911997882319
S11315D031F00995892B79F3DFEFCFEFECCF8AE077
S11315E00995892B19F08FEF9FEF02C08D2F9C2F47
S11315F0DF91CF911F910F910895ACE0B0E0E3E04B
S1131600FBE00C947B0D7C016B018A01FC011782C9
S11316101682838181FFBDC1CE0101964C01F70181
S11316209381F60193FD859193FF81916F01882346
S113163009F4ABC1853239F493FD859193FF81910F
S11316406F01853229F4B70190E00E94E50CE7CFE1
S1131650512C312C20E02032A0F48B3269F030F48C
S1131660803259F0833269F420612CC08D3239F014
S1131670803339F4216026C02260246023C02860AE
S113168021C027FD27C030ED380F3A3078F426FF0B
S113169006C0FAE05F9E300D1124532E13C08AE079
S11316A0389E300D1124332E20620CC08E3221F46A
S11316B026FD6BC1206406C08C3611F4206802C07C
S11316C0883641F4F60193FD859193FF81916F0172
S11316D08111C1CF982F9F7D9554933028F40C5FCE
S11316E01F4FFFE3F9830DC0833631F0833771F068
S11316F0833509F05BC022C0F801808189830E5FC5
S11317001F4F44244394512C540115C03801F2E076
S11317106F0E711CF801A080B18026FF03C0652DF7
S113172070E002C06FEF7FEFC5012C870E94DA0CD6
S11317302C0183012C852F77222E17C03801F2E06B
S11317406F0E711CF801A080B18026FF03C0652DC7
S113175070E002C06FEF7FEFC5012C870E94CF0CB1
S11317602C012C852068222E830123FC1BC0832D91
S113177090E048165906B0F4B70180E290E00E9468
S1131780E50C3A94F4CFF50127FC859127FE81916D
S11317905F01B70190E00E94E50C31103A94F1E04A
S11317A04F1A51084114510471F7E5C0843611F001
S11317B0893639F5F80127FF07C06081718182817C
S11317C093810C5F1F4F08C060817181072E000C4C
S11317D0880B990B0E5F1F4F2F76722E97FF09C04F
S11317E090958095709561957F4F8F4F9F4F20689E
S11317F0722E2AE030E0A4010E941D0DA82EA81824
S113180044C0853729F42F7EB22E2AE030E025C06B
S1131810F22FF97FBF2E8F36C1F018F4883579F096
S1131820B4C0803719F0883721F0AFC02F2F206162
S1131830B22EB4FE0DC08B2D8460B82E09C024FFD7
S11318400AC09F2F9660B92E06C028E030E005C07C
S113185020E130E002C020E132E0F801B7FE07C029
S113186060817181828193810C5F1F4F06C060810A
S1131870718180E090E00E5F1F4FA4010E941D0D56
S1131880A82EA818FB2DFF777F2E76FE0BC0372DD0
S11318903E7FA51450F474FE0AC072FC08C0372DB4
S11318A03E7E05C0BA2C372D03C0BA2C01C0B52C1E
S11318B034FF0DC0FE01EA0DF11D8081803311F467
S11318C0397E09C032FF06C0B394B39404C0832F99
S11318D0867809F0B39433FD13C030FF06C05A2C48
S11318E0B31418F4530C5B18B32CB31468F4B70195
S11318F080E290E03C870E94E50CB3943C85F5CFF0
S1131900B31410F43B1801C0312C34FF12C0B701DA
S113191080E390E03C870E94E50C3C8532FF17C0D1
S113192031FD03C088E790E002C088E590E0B7018C
S11319300CC0832F867859F031FF02C08BE201C0BE
S113194080E237FD8DE2B70190E00E94E50CA5141A
S113195038F4B70180E390E00E94E50C5A94F7CF85
S1131960AA94F401EA0DF11D8081B70190E00E9470
S1131970E50CA110F5CF332009F451CEB70180E274
S113198090E00E94E50C3A94F6CFF70186819781A6
S113199002C08FEF9FEF2C96E2E10C94970DFC01AF
S11319A00590615070400110D8F7809590958E0F86
S11319B09F1F0895FC016150704001900110D8F7F9
S11319C0809590958E0F9F1F08950F931F93CF932B
S11319D0DF93FB01238121FD03C08FEF9FEF28C01C
S11319E022FF16C04681578124813581421753074F
S11319F044F4A081B1819D012F5F3F4F3183208347
S1131A008C93268137812F5F3F4F3783268310C005
S1131A10EB01092F182F0084F185E02D0995892BFE
S1131A20E1F68E819F8101969F838E83812F902F73
S1131A30DF91CF911F910F910895FA01AA272830C1
S1131A4051F1203181F1E8946F936E7F6E5F7F4F87
S1131A508F4F9F4FAF4FB1E03ED0B4E03CD0670F03
S1131A60781F891F9A1FA11D680F791F8A1F911D56
S1131A70A11D6A0F711D811D911DA11D20D009F4A6
S1131A8068943F912AE0269F11243019305D3193E8
S1131A90DEF6CF010895462F4770405D4193B3E0D1
S1131AA00FD0C9F7F6CF462F4F70405D4A3318F078
S1131AB0495D31FD4052419302D0A9F7EACFB4E029
S1131AC0A6959795879577956795BA95C9F70097E1
S1131AD06105710508959B01AC010A2E0694579582
S1131AE0479537952795BA95C9F7620F731F841FD9
S1131AF0951FA01D08952F923F924F925F926F926F
S1131B007F928F929F92AF92BF92CF92DF92EF9289
S1131B10FF920F931F93CF93DF93CDB7DEB7CA1B0A
S1131B20DB0B0FB6F894DEBF0FBECDBF09942A8835
S1131B30398848885F846E847D848C849B84AA84DD
S1131B40B984C884DF80EE80FD800C811B81AA816A
S1131B50B981CE0FD11D0FB6F894DEBF0FBECDBF35
S1071B60ED010895F2
S1131B6400000E0220004E4F204D41544348494E7C
S1131B74472052554C455320464F554E442100535B
S1131B84756D206F66204172656173203D20302C91
S1131B942077696C6C2063617573652064697620B1
S1131BA46572726F720053756D206F662050726F88
S1131BB464756374733D2025640A004572726F7200
S1131BC420696E20696E707574206C696E652C20B2
S1131BD46D656D6265727368697020656C656D65A9
S1131BE46E742025732E0A00416E676C65004E4C9A
S1131BF4004E4D004E53005A4500505300504D00C2
S1131C04504C0056656C6F6369747900466F726357
S1131C14650025733A2056616C75653D2025640A78
S1131C24002025733A2056616C7565202564204C88
S1131C346566742025642052696768742025640AE3
S1131C440052756C65202325643A00202564000045
S9030000FC
